:020000040800F2
:10000000005000204D0F0008DD010008DF0100084E
:10001000E1010008E3010008E5010008000000001C
:10002000000000000000000000000000210B00089C
:10003000E701000800000000810B0008E90100084A
:10004000950F0008950F0008950F0008950F000800
:10005000950F0008950F0008950F0008950F0008F0
:10006000950F0008950F0008950F0008950F0008E0
:10007000950F0008950F0008950F0008950F0008D0
:10008000950F0008950F0008950F0008950F0008C0
:10009000950F0008950F0008950F0008950F0008B0
:1000A000950F0008950F0008950F0008950F0008A0
:1000B000950F0008950F0008950F0008950F000890
:1000C000950F0008950F0008950F0008950F000880
:1000D000950F0008950F0008950F0008950F000870
:1000E000950F0008950F0008950F0008000000000C
:1000F0000000000000000000000000000000000000
:0C01000000000000000000005FF808F1A3
:1001100010B5054C237833B9044B13B10448AFF341
:1001200000800123237010BD340400200000000073
:100130000C01000808B5034B1BB103490348AFF39A
:10014000008008BD00000000380400200C010008F9
:1001500010B582B000F0F6FC002401940223009355
:10016000234680220549064800F052FA204600F056
:1001700081FA00F0F7FC02B010BD00BFC01000080B
:100180008501000808B500F077FD4FF47A7000F0A3
:10019000FDFBF8E708B54FF4407000F063FE00F097
:1001A0004BFD08BD00B583B0FFF7F4FF00230193BA
:1001B0000122009280220749074800F029FA01280D
:1001C00004D04FF0FF3003B05DF804FB00F0B4FA48
:1001D000FEE700BFCC100008510100087047FEE7A1
:1001E000FEE7FEE7FEE7704708B500F0EBFC08BD50
:1001F00082B00023019300932C4A136843F48033A8
:1002000013602A4B1B6803F400330093019B0133F6
:100210000193009B1BB9019BB3F5A06FF1D1234B58
:100220001B6813F4003F06D001230093009B012BB1
:1002300004D002B0704700230093F7E71C4B1A6804
:1002400042F010021A601A6822F007021A601A6857
:1002500042F002021A60A3F580535A685A605A6845
:100260005A605A6842F480625A605A6822F47C12DA
:100270005A605A6842F4E8125A601A6842F0807272
:100280001A600A4B1B6813F0007FFAD0074B5A68BC
:1002900022F003025A605A6842F002025A60034B8D
:1002A0005B6803F00C03082BF9D1C2E70010024091
:1002B0000020024008B5FFF79BFF08BD08B5104BB2
:1002C0001A6842F001021A6059680E4A0A405A60E0
:1002D0001A6822F0847222F480321A601A6822F4BA
:1002E00080221A605A6822F4FE025A604FF41F02FC
:1002F0009A60FFF7DFFF044B4FF000629A6008BD81
:10030000001002400000FFF800ED00E000F10803DB
:1003100043604FF0FF328260C360036100230360DB
:10032000704700230361704743684B609A688A6096
:10033000516099600861036801330360704730B40D
:100340000D68B5F1FF3F11D000F108031C465B6852
:100350001A68AA42FAD963684B6099608C60616040
:10036000086103680133036030BC70470469F2E739
:100370000369416882688A60416851605A688242B4
:1003800005D0002202611868013818607047826841
:100390005A60F6E7084B1B681B6823B9074B4FF000
:1003A000FF321A607047044B1B68DB68DB685A68D1
:1003B000024B1A60704700BF54040020040500205F
:1003C00010B50446006B00F027FD204600F024FD28
:1003D00010BD2DE9F04707469846089DDDF82490AA
:1003E0000A9C266B02F18042013A06EB820626F057
:1003F00007064FF0000CBCF10F0F0BD811F80C20C2
:1004000004EB0C0383F8342011F80C3013B10CF119
:10041000010CF0E7002384F84330042D00D90425B3
:10042000E56265644FF0000AC4F848A0201DFFF79C
:1004300078FF04F11800FFF774FF2461C5F105058A
:10044000A5616462C4F84CA084F850A042463946C5
:10045000304600F04DFB2060B9F1000F01D0C9F823
:100460000040BDE8F087000038B5002407E004EB49
:10047000840293000E481844FFF748FF0134042C0F
:10048000F5D90C4D2846FFF741FF0B4C2046FFF7EE
:100490003DFF0A48FFF73AFF0948FFF737FF0948D1
:1004A000FFF734FF084B1D60084B1C6038BD00BFD0
:1004B0005C040020D8040020EC0400200C0500207F
:1004C0003805002024050020540400205804002092
:1004D00010B5044600F036FB214A1368013313605F
:1004E000204B1B685BB1204B1B686BB91D4B1B6815
:1004F000DA6AE36A9A4207D81A4B1C6004E0194B87
:100500001C601368012B28D0184A1368013313604C
:10051000E06A01238340164A11680B43136000EB25
:100520008000211D134B03EB8000FFF7FDFE00F060
:1005300019FB0D4B1B687BB10A4B1B68DA6AE36A37
:100540009A4209D24FF0E0234FF08052C3F8042DB5
:10055000BFF34F8FBFF36F8F10BDFFF785FFD3E75A
:10056000C00400205004002020050020D0040020FA
:10057000D40400205C04002070B504460D461D4BD9
:100580001E681D4B18680430FFF7F2FE50B91A4B75
:100590001B68DA6A012303FA02F218490B6823EA9E
:1005A00002030B60B4F1FF3F0DD03444124B1B68C3
:1005B0005C60A64210D9124B18680F4B19680431C1
:1005C000FFF7BDFE70BD002DEFD00B4B1968043155
:1005D0000C48FFF7A9FEF5E70B4B1868064B1968A6
:1005E0000431FFF7ACFE094B1B68A342EAD9074B65
:1005F0001C60E7E74C05002050040020D4040020D4
:100600005804002024050020540400200405002084
:100610002DE9F04385B00746884614461E469000F3
:1006200000F09AFBF0B18146542000F095FB05469E
:10063000A0B1C0F83090D5B10023039302950D9B73
:1006400001930C9B00933346224641463846FFF700
:10065000C0FE2846FFF73CFF012005E0484600F0B9
:10066000DBFBE8E74FF0FF3005B0BDE8F0834FF06B
:10067000FF30F9E738B5044600F064FA002C33D0B7
:10068000251D2846FFF774FE68B9E36A03EB830172
:10069000214A52F8212032B901229A401F490B68A1
:1006A00023EA02030B60A36A1BB104F11800FFF7F1
:1006B0005FFE1B4A1368013313601A4B1B68A34289
:1006C00015D0194A1368013B13602046FFF778FEE6
:1006D000FFF760FE00F046FA144B1B681BB1114B8C
:1006E0001B68A3420CD038BD0E4B1C68C8E72946D6
:1006F0000F48FFF719FE0F4A136801331360E9E74B
:100700004FF0E0234FF08052C3F8042DBFF34F8F1A
:10071000BFF36F8FE7E700BF5C040020D404002024
:10072000D004002050040020C00400202005002038
:1007300038050020C404002000B583B0114B01939C
:1007400000230093802210491048FFF761FF012821
:1007500002D003B05DF804FB4FF0500383F311881F
:10076000BFF36F8FBFF34F8F094B4FF0FF321A600B
:10077000084B01221A60084B00221A6000F042FA6E
:10078000E7E700BF00050020DC1000081D0A000894
:1007900004050020200500204C050020024A1368B3
:1007A00001331360704700BFCC040020F8B5344B10
:1007B0001B68002B58D1334B1E6801361E6086B172
:1007C000314B1B68B34245D90027304B1B68DB6AAD
:1007D00003EB83039A002E4B9B58012B49D9012729
:1007E00047E02C4A11682C4B1868106019602B4A9E
:1007F000136801331360FFF7CDFDE1E70127254BB7
:100800001B681B6843B3234B1B68DB68DC686368A9
:100810009E4226D3251D2846FFF7AAFDA36A1BB1D9
:1008200004F11800FFF7A4FDE36A01229A401C4975
:10083000086802430A6003EB83039A0029461448C0
:100840001044FFF771FDE26A104B1B68DB6A9A42A5
:10085000D4D2D4E70027D2E70B4B4FF0FF321A6017
:10086000B3E7094A1360B0E70E4A13680133136017
:1008700000270D4B1B6803B101273846F8BD00BFA8
:10088000CC0400204C05002004050020500400206A
:100890005C040020540400205804002008050020B7
:1008A000D4040020C80400205005002038B500F012
:1008B00049F92E4B1A68013A1A601B68002B4FD178
:1008C0002B4B1B680BB900244BE00024294B1B6801
:1008D0001BB3284BDB68DC6804F11800FFF748FD08
:1008E000251D2846FFF744FDE06A01238340224A84
:1008F00011680B43136000EB800029461F4B03EB8C
:100900008000FFF711FDE26A1D4B1B68DB6A9A420B
:10091000DCD31C4B01221A60D8E70CB1FFF73AFD7B
:10092000194B1C6884B9174B1C68D4B14FF0E023F5
:100930004FF08052C3F8042DBFF34F8FBFF36F8F7A
:1009400001240EE0013C07D0FFF730FF0028F9D06A
:100950000C4B01221A60F5E70B4B00221A60E2E70C
:10096000002400F0FFF8204638BD00BFCC04002072
:10097000C00400200C050020D40400205C040020EA
:100980005004002050050020C804002010B550B9C4
:100990004FF0E0234FF08052C3F8042DBFF34F8F88
:1009A000BFF36F8F10BD0446FFF7F8FE002120460D
:1009B000FFF7E2FDFFF77AFF0028F3D1E8E7000038
:1009C000134B1B6813B310B5FFF7E8FE114B1C68FF
:1009D000FFF76CFF24B90E4B1B68002BF4D110BD40
:1009E00000F0B0F80B4BDB68DC68201DFFF7C0FCA3
:1009F000094A1368013B1360054A1368013B136001
:100A000000F0B0F82046FFF7DBFCE4E7704700BFDA
:100A1000C404002038050020C004002008B5FFF7FA
:100A2000CFFF074B1B68012BF9D94FF0E0234FF0A4
:100A30008052C3F8042DBFF34F8FBFF36F8FEEE7E3
:100A40005C040020184B1B681BB1184B01221A6074
:100A50007047164B00221A60154B1B68B3FA83F3DC
:100A6000DBB2C3F11F03134903EB830082000A4486
:100A700050684068506003EB830C4FEA8C020832E8
:100A80001144884209D003EB83039A00094B1344B5
:100A90005B68DA68084B1A607047406862469100EC
:100AA000044A0A445060EEE7CC04002050050020C0
:100AB000D40400205C040020500400204FF05003B8
:100AC00083F31188BFF36F8FBFF34F8FFEE70000F2
:100AD00006480068006880F3088862B661B6BFF314
:100AE0004F8FBFF36F8F00DF00BF000008ED00E005
:100AF0004FF0807340F8043C21F0010140F8081CDD
:100B0000034B40F80C3C40F8202C4038704700BFA5
:100B1000BD0A000800000000000000000000000006
:100B2000074B19680868B0E8F00F80F30988BFF335
:100B30006F8F4FF0000080F311884EF00D0E70475C
:100B4000500400204FF0500383F31188BFF36F8FE0
:100B5000BFF34F8F024A136801331360704700BF21
:100B600000000020034A1368013B13600BB983F3B4
:100B70001188704700000020000000000000000005
:100B8000EFF30980BFF36F8F0D4B1A6820E9F00F68
:100B900010602DE908404FF0500080F31188FFF7F6
:100BA00051FF4FF0000080F31188BDE8084019683C
:100BB0000868B0E8F00F80F30988BFF36F8F7047C3
:100BC0005004002008B54FF0500383F31188BFF3A1
:100BD0006F8FBFF34F8FFFF7E9FD28B14FF0E02390
:100BE0004FF08052C3F8042D002383F3118808BD11
:100BF0004FF0E023024A5A6107221A61704700BF92
:100C00003F19010008B54FF0E023D3F8202D42F43E
:100C10007002C3F8202DD3F8202D42F07042C3F8A3
:100C2000202DFFF7E5FF034B00221A60FFF750FF6E
:100C3000FFF744FF0000002030B583B0002301938C
:100C40000121102000F018F94FF40055ADF80450C0
:100C500010238DF8073003238DF80630054C01A9C9
:100C6000204600F017F92946204600F06CF903B041
:100C700030BD00BF001001400549CB681A0402F0E6
:100C80000052DB4303F4005313430B61704700BF72
:100C900000100140124A12F0070F1ED0D11D21F0A2
:100CA0000701C1F5205313440A460E480260002193
:100CB00041601344083B23F007030B48036059606D
:100CC0001960991A51601360084B1960084B19603C
:100CD000084B4FF000421A6070474FF42053E4E78E
:100CE00058050020642D002054050020602D0020B0
:100CF0005C2D0020582D0020154B1A461B6883429E
:100D0000FBD3516802EB010C844509D0416800EB2C
:100D1000010C634509D00360904218D01060704701
:100D20004068014451601046F0E710B4094C246853
:100D3000A3420AD05B681944416013681B680360D2
:100D4000904200D0106010BC70470460F8E7704714
:100D5000642D00205405002070B50546FFF71EFDE8
:100D6000284B1B68A3B1284B1B681D4242D135B1EB
:100D7000083515F0070F02D025F007050835002DBE
:100D80003AD0224B1B68AB4238D3214A146804E0A6
:100D9000FFF780FFE7E722461C466368AB4202D2BA
:100DA0002368002BF7D1174B1B68A34228D0166885
:100DB00008362368136063685B1B102B14D86268C5
:100DC00012490B689B1A0B60124909688B4201D2C9
:100DD00010490B600C4B1B681343636000232360B6
:100DE000FFF764FD304670BD601943606560FFF732
:100DF00083FFE4E70026F3E70026F1E70026EFE7AC
:100E00000026EDE754050020582D00205C2D002021
:100E1000642D0020602D0020F8B138B50446A0F103
:100E2000080550F8043C0D4A1268134202D050F8ED
:100E3000081C01B138BD23EA020340F8043CFFF767
:100E4000ADFC54F8041C064A13680B441360284692
:100E5000FFF752FFFFF72AFDECE77047582D0020FF
:100E60005C2D002040F0BF6040F40030014BD860A2
:100E7000704700BF00ED00E021B1054A93691843B7
:100E800090617047024A936923EA000090617047BD
:100E90000010024030B5CB7803F00F02964613F0F5
:100EA000100F03D091F802E04EEA020E0B7803B364
:100EB0000468002301E042610133072B18D80122A6
:100EC0009A40B1F800C032EA0C05F5D14FEA830C24
:100ED0000F2505FA0CF524EA05040EFA0CFC4CEA81
:100EE0000404CD78282DE6D0482DE5D10261E3E752
:100EF00004600B88FF2B25D94468002303E0CD78DC
:100F0000482D1CD00133072B1BD803F1080C0122FC
:100F100002FA0CF2B1F800C032EA0C05F2D14FEA45
:100F2000830C0F2505FA0CF524EA05040EFA0CFCD7
:100F30004CEA0404CD78282DE1D14261DFE702615B
:100F4000E0E7446030BD016170470000002103E02C
:100F50000B4B5B58435004310A480B4B42189A42E2
:100F6000F6D30A4A02E0002342F8043B084B9A42B7
:100F7000F9D3FFF7A3F900F00FF8FFF713F9704763
:100F80000C1100080000002034040020340400206C
:100F9000702D0020FEE7000070B50D4E0D4D761B44
:100FA000B61006D0002455F8043B01349847A642F9
:100FB000F9D1094E094D00F097F8761BB61006D00E
:100FC000002455F8043B01349847A642F9D170BD7E
:100FD00000110008001100080811000800110008A5
:100FE000024B13B1024800F005B870470000000042
:100FF00001100008002301461A46184600F01AB8EE
:1010000038B5084B084D5B1B9C1007D0043B1D44B2
:10101000013C55F804399847002CF9D1BDE8384017
:1010200000F068B80C11000808110008704700BFF4
:10103000704700BF2DE9F047DFF87CA00646DAF8DC
:10104000000098460F469146FFF7F0FF1B4B1B68C8
:10105000D3F8484124B365681F2D26DC5EB96B1CAC
:101060000235DAF80000636044F82570FFF7E0FF0E
:101070000020BDE8F087012304EB8501C1F88890CA
:10108000D4F88821AB401A43022EC4F88821C1F855
:101090000881E4D1D4F88C211343C4F88C31DEE705
:1010A00003F5A674C3F84841D5E7DAF80000FFF766
:1010B000BFFF4FF0FF30DCE730040020E4100008F1
:1010C0004C45445F5461736B0000000041707054E4
:1010D00061736B43726561746500000049444C455F
:1010E0000000000008000020F8B500BFF8BC08BCF4
:1010F0009E467047F8B500BFF8BC08BC9E467047D6
:08110000E10F000835010008B1
:0411080011010008C9
:10110C00AAAAAAAA0000000000000000F402002015
:10111C005C030020C403002000000000000000005D
:10112C0000000000000000000000000000000000B3
:10113C0000000000000000000000000000000000A3
:10114C000000000000000000000000000000000093
:10115C000000000000000000000000000000000083
:10116C000000000000000000000000000000000073
:10117C000000000000000000000000000000000063
:10118C000000000000000000000000000000000053
:10119C000000000000000000000000000000000043
:1011AC000000000000000000000000000000000033
:1011BC0001000000000000000E33CDAB34126DE6D0
:1011CC00ECDE05000B000000000000000000000039
:1011DC000000000000000000000000000000000003
:1011EC0000000000000000000000000000000000F3
:1011FC0000000000000000000000000000000000E3
:10120C0000000000000000000000000000000000D2
:04153C006C2D0020F2
:0400000508000F4D93
:00000001FF
